:020000020000FC
:040000000C94180044
:040024000C94000236
:10002C000C94000148E04EBF4FE54DBFBB9A43E82E
:10003C0042BF47EE4DBD46E94CBD40E04FBD45E0EB
:10004C004EBD43BF45E049BF78944FEF42BB80E0C3
:08005C0090E041E142BBFDCF41
:0C02000043E842BF81E00E940003189513
:1004000047EE4DBD46E94CBD91E078940E94000353
:0204100018953D
:100600007894082F192F012700FF0E94000480E032
:0406100090E00895D9
:1008000048E068B3642768BB0E94000542E242BB2F
:02081000089549
:100A000042EB44BD47E045BD48B746FFFDCF40E05F
:080A100045BD40E448BF089514
:00000001FF
