:020000020000FC
:040000000C9400015B
:0C0024000C9400030C9400040C940002E7
:1002000048E04EBF4FE54DBFBB9A45E049BF7894EB
:1002100043E842BF45E043BF47EE4DBD46E94CBD14
:1002200040E04FBD45E04EBD4FEF41BB01E102BB99
:02023000FDCF00
:0E04000043E842BF41E068B7642768BF189523
:1006000047EE4DBD46E94CBD48B740FF189548E060
:1006100068B3642768BB78944CEE4BBD48E74ABD8D
:0C06200040E04FBD4DE04EBD78941895B1
:1008000042E242BB4CEE4DBD48E74CBD40E04FBD1F
:0608100044E04EBD189506
:00000001FF
