S01A000041565254696D6572496E74657272757074732E73726563E0
S11300000C942A000C943C000C943C000C943C008E
S11300100C943C000C943C000C943C000C943C006C
S11300200C943C000C9471000C943C000C948400DF
S11300300C943C000C943C000C943C000C943C004C
S11300400C943C000C943C000C943C000C943C003C
S11300500C943C0011241FBECFE5D8E0DEBFCDBF19
S113006020E0A0E6B0E001C01D92A236B207E1F79D
S11300700E943E000C9495000C94000010926100C4
S113008010926000BB9A8FEF81BB83E882BF85E04A
S113009083BF26E937EE3DBD2CBD1FBC8EBD89BF95
S11300A0789491E138E022E280916100813099F402
S11300B080916000813079F488B3832788BBE3ECB6
S11300C0F9E03197F1F700C0000022BB1092610003
S11300D01092600001C092BB109261001092600007
S11300E0E3CF1F920F920FB60F9211248F938EE9D4
S11300F08DBD88E58CBD81E0809361008F910F9068
S11301000FBE0F901F9018951F920F920FB60F926B
S113011011248F9383E882BF81E0809360008F91E4
S11101200F900FBE0F901F901895F894FFCF0C
S9030000FC
